:020000040000FA
:04000000A0EF7FF0FE
:08FF38000000000000000000C1
:10FF4000D368240EAC6E900EAB6EB886100EAF6EFA
:10FF50003DD8C1084AE14F0EAD6E4B0EAD6E006A42
:10FF600035D8F86E076E32D8F76EAA6E2FD8F66EB7
:10FF7000A96E2CD8016E012A00EE09F0F56E26D884
:10FF8000EC6EA86E012EFAD7006615D007AC03D030
:10FF9000040E14D80ED0940E11D80A0000EE0AF008
:10FFA000400E066EEE50F56E0F00062EFBD7840E47
:10FFB00005D8A694D2D74E0EAD6ED1D7A66E550EEB
:10FFC000A76EAA0EA76EA68200001200030E026E94
:10FFD000036A046A9EAA03D0AE5000261200042EC3
:0EFFE000F9D7032EF6D7022EF3D7AB9EA5D786
:02FFEE00000011
:020000040030CA
:0100010006F8
:010002001EDF
:010003000AF2
:01000500807A
:010006008079
:010008000FE8
:01000900C036
:01000A000FE6
:01000B00E014
:01000C000FE4
:01000D0040B2
:00000001FF
