:020000040000FA
:04000000A0EF7FF0FE
:08FF38000000000000000000C1
:10FF4000D38C0F013A6B3B6B0001240EAC6E080E94
:10FF5000AF6E900EAB6E41D8C1084EE1660EAD6E2D
:10FF6000430EAD6E406A39D8F86E456E36D8F76EDE
:10FF7000AA6E33D8F66EA96E30D8416E466EE96A25
:10FF80002CD8EE6EF56EA86E412EFAD726D84E0EFE
:10FF9000E8E145AC03D0040E18D811D0E96A45AEAB
:10FFA00006D00A000ED811D8462EFCD708D0940EE1
:10FFB0000CD80A0006D8462EFDD7840E06D8A69483
:10FFC000CFD7EE50F56E0F00C40CA66E550EA76E7F
:10FFD000AA0EA76EA68200001200090E426E436AA6
:10FFE000446A9EAA03D0AE5040261200442EF9D790
:0CFFF000432EF6D7422EF3D7AB9E9ED7CF
:020000040030CA
:0100010028D6
:0100020018E5
:010003003EBE
:01000500BD3D
:010006008079
:010008000FE8
:01000900C036
:01000A000FE6
:01000B00C034
:01000C000FE4
:01000D0040B2
:00000001FF
