:020000040000FA
:04000000A0EF7FF0FE
:08FF38000000000000000000C1
:10FF4000D38C240EAC6E080EAF6E900EAB6E44D800
:10FF5000C10851E1660EAD6E430EAD6E406A3CD8ED
:10FF6000F86E456E39D8F76EAA6E36D8F66EA96E61
:10FF700033D8416E466EE96A2FD8EE6EF56EA86EE4
:10FF8000412EFAD729D84E0EE8E145AC03D0040E35
:10FF90001BD814D0E96A45AE06D00A0011D814D88F
:10FFA000462EFCD70BD0940E0FD80A00418C08D8EF
:10FFB000412EFDD7840E08D8E9ACF8D7A694CCD74B
:10FFC000EE50F56E0F00C40CA66E550EA76EAA0E6D
:10FFD000A76EA68200001200090E426E436A446AB0
:10FFE0009EAA03D0AE5040261200442EF9D7432ECD
:0AFFF000F6D7422EF3D7AB9E9FD741
:02FFFA00000005
:020000040030CA
:0100010008F6
:0100020018E5
:010003001EDE
:010005008179
:010006008079
:010008000FE8
:01000900C036
:01000A000FE6
:01000B00C034
:01000C000FE4
:01000D0040B2
:00000001FF
